:020000040800F2
:1000000000500020A5280008650F0008710F0008A7
:10001000790F0008810F0008890F00080000000018
:10002000000000000000000000000000910F000828
:100030009D0F000800000000A90F0008B50F000880
:10004000ED280008ED280008ED280008ED2800083C
:10005000ED280008ED280008ED280008ED2800082C
:10006000ED280008ED280008ED280008ED2800081C
:10007000ED280008ED280008ED280008ED2800080C
:10008000ED280008ED280008ED280008ED280008FC
:10009000ED280008ED280008ED280008ED280008EC
:1000A000ED280008ED280008ED280008ED280008DC
:1000B000ED280008ED280008ED280008ED280008CC
:1000C000ED280008ED280008ED280008ED280008BC
:1000D000ED280008ED280008ED280008ED280008AC
:1000E000ED280008ED280008ED28000800000000B9
:1000F0000000000000000000000000000000000000
:0C01000000000000000000005FF808F1A3
:10010C0010B5054C237833B9044B13B10448AFF345
:10011C0000800123237010BD30040020000000007B
:10012C00F0280008084B10B51BB108490848AFF37C
:10013C0000800848036803B910BD074B002BFBD0A7
:10014C00BDE81040184700BF000000003404002038
:10015C00F0280008300400200000000080B400AF3C
:10016C00154A154B1B6843F0010313601249124BDF
:10017C005A68124B13404B600F4A0F4B1B6823F00D
:10018C00847323F4803313600B4A0B4B1B6823F4EA
:10019C0080231360084A084B5B6823F4FE0353600A
:1001AC00054B4FF41F029A60054B4FF000629A60AA
:1001BC0000BFBD4680BC7047001002400000FFF835
:1001CC0000ED00E080B485B000AF0023FB6000239D
:1001DC00BB6000237B602C4B5B6803F00C03FB6063
:1001EC00FB68042B07D0082B09D0002B33D1274BED
:1001FC00274A1A6033E0254B254A1A602FE0224B20
:10020C005B6803F47013BB601F4B5B6803F48033B3
:10021C007B60BB689B0C0233BB607B68002B06D1F8
:10022C00BB681C4A02FB03F3184A136017E0164B19
:10023C005B6803F40033002B06D0BB68154A02FB45
:10024C0003F3124A13600AE0BB68114A02FB03F382
:10025C000E4A136003E00D4B0D4A1A6000BF0A4BA7
:10026C005B6803F0F0031B090B4AD35CFB60074B84
:10027C001A68FB6822FA03F3044A136000BF1437B0
:10028C00BD4680BC704700BF00100240000000203B
:10029C0000127A0000093D000829000880B485B0DE
:1002AC0000AF78607B6803F00703FB600C4BDB68E6
:1002BC00BB60BA684FF6FF031340BB60FB681A02C1
:1002CC00BB68134343F0BF6343F40033BB60044A81
:1002DC00BB68D36000BF1437BD4680BC704700BFFD
:1002EC0000ED00E080B400AF044BDB6803F4E06386
:1002FC001B0A1846BD4680BC704700BF00ED00E0ED
:10030C0080B483B000AF0346FB71084997F90730FE
:10031C005B09FA7902F01F02012000FA02F241F89F
:10032C00232000BF0C37BD4680BC704700E100E0C5
:10033C0080B483B000AF0346FB71094997F90730CD
:10034C005B09FA7902F01F02012000FA02F2203355
:10035C0041F8232000BF0C37BD4680BC704700BF5E
:10036C0000E100E080B483B000AF0346FB71094AA2
:10037C0097F907305B09403352F82320FB7903F0DF
:10038C001F0322FA03F303F0010318460C37BD4692
:10039C0080BC704700E100E080B483B000AF03463E
:1003AC00FB71094997F907305B09FA7902F01F02D2
:1003BC00012000FA02F2403341F8232000BF0C3731
:1003CC00BD4680BC704700BF00E100E080B483B044
:1003DC0000AF0346FB71094997F907305B09FA79BD
:1003EC0002F01F02012000FA02F2603341F82320D0
:1003FC0000BF0C37BD4680BC704700BF00E100E079
:10040C0080B483B000AF0346FB71094A97F90730FB
:10041C005B09803352F82320FB7903F01F0322FA87
:10042C0003F303F0010318460C37BD4680BC70473C
:10043C0000E100E080B483B000AF03463960FB718B
:10044C0097F90730002B0BDA0D49FB7903F00F03FA
:10045C00043B3A68D2B21201D2B20B441A7609E0CC
:10046C00084997F907303A68D2B21201D2B20B445C
:10047C0083F8002300BF0C37BD4680BC704700BF1B
:10048C0000ED00E000E100E080B483B000AF034673
:10049C00FB7197F90730002B0ADA0C4AFB7903F051
:1004AC000F03043B13441B7EDBB21B09DBB208E0D9
:1004BC00074A97F90730134493F80033DBB21B0952
:1004CC00DBB218460C37BD4680BC704700ED00E02F
:1004DC0000E100E080B489B000AFF860B9607A60E8
:1004EC00FB6803F00703FB61FB69C3F10703042BF3
:1004FC0028BF0423BB61FB690433062B02D9FB69BB
:10050C00033B00E000237B610122BB6902FA03F389
:10051C005A1EBB681A407B699A4001217B6901FA1B
:10052C0003F3591E7B680B40134318462437BD4612
:10053C0080BC704780B489B000AFF860B9607A6055
:10054C003B60BB6803F00703FB61FB69C3F1070366
:10055C00042B28BF0423BB61FB690433062B02D98F
:10056C00FB69033B00E000237B61FA687B69DA409E
:10057C000121BB6901FA03F3013B1A407B681A6045
:10058C0001227B6902FA03F35A1EFB681A403B688E
:10059C001A6000BF2437BD4680BC704780B400AFE2
:1005AC00BFF34F8F0549054BDB6803F4E062044B46
:1005BC001343CB60BFF34F8F00BFFDE700ED00E0AE
:1005CC000400FA0580B582B000AF78607B68013B0F
:1005DC00B3F1807F01D301230FE00A4A7B68013B12
:1005EC0053600F214FF0FF30FFF724FF054B002223
:1005FC009A60044B07221A60002318460837BD4640
:10060C0080BD00BF10E000E080B582B000AF786024
:10061C007868FFF743FE00BF0837BD4680BD00BFBA
:10062C0080B586B000AF0346B9607A60FB730023D7
:10063C007B61FFF757FE78617A68B9687869FFF7D4
:10064C0049FF024697F90F3011461846FFF7F2FEA4
:10065C0000BF1837BD4680BD80B582B000AF0346E1
:10066C00FB7197F907301846FFF74AFE00BF0837B1
:10067C00BD4680BD80B582B000AF0346FB7197F9D3
:10068C0007301846FFF754FE00BF0837BD4680BD43
:10069C0080B500AFFFF782FF00BF80BD80B582B090
:1006AC0000AF78607868FFF78DFF0346184608376F
:1006BC00BD4680BD80B500AFFFF714FE034618465B
:1006CC0080BD00BF80B584B000AFB9607A603B607C
:1006DC000346FB7397F90F301846FFF7D5FE3B68BE
:1006EC007A68B968FFF726FF00BF1037BD4680BD9A
:1006FC0080B582B000AF0346FB7197F907301846FE
:10070C00FFF74AFE00BF0837BD4680BD80B582B0FA
:10071C0000AF0346FB7197F907301846FFF722FE2E
:10072C00034618460837BD4680BD00BF80B582B071
:10073C0000AF0346FB7197F907301846FFF746FEEA
:10074C0000BF0837BD4680BD80B582B000AF034600
:10075C00FB7197F907301846FFF752FE034618460F
:10076C000837BD4680BD00BF80B483B000AF786051
:10077C007B68042B06D1094A084B1B6843F0040321
:10078C00136005E0054A054B1B6823F00403136056
:10079C0000BF0C37BD4680BC704700BF10E000E0C6
:1007AC0080B500AF00F002F800BF80BD80B400AF90
:1007BC0000BFBD4680BC704780B48BB000AF786082
:1007CC0039600023FB610023BB6100237B610023A4
:1007DC003B6200233B6100237B6227E101227B6AA1
:1007EC0002FA03F3FB613B681A68FB691340BB61B7
:1007FC00BA69FB699A4240F016813B685B68122B20
:10080C0034D0122B0DD8022B2BD0022B04D8002B5A
:10081C0031D0012B1CD048E0032B43D0112B1BD023
:10082C0043E0874A934226D0854A934206D8854AAC
:10083C00934220D0844A93421DD036E0834A93429F
:10084C0019D0834A934216D0824A934213D02CE09B
:10085C003B68DB683B6228E03B68DB6804333B6247
:10086C0023E03B68DB6808333B621EE03B68DB68D7
:10087C000C333B6219E03B689B68002B02D10423CC
:10088C003B6212E03B689B68012B05D108233B625D
:10089C007B68FA691A6108E008233B627B68FA6995
:1008AC005A6102E000233B6200BFBB69FF2B01D8F9
:1008BC007B6801E07B680433FB60BB69FF2B02D8CB
:1008CC007B6A9B0002E07B6A083B9B003B61FB68F8
:1008DC001A680F213B6901FA03F3DB431A40396AAA
:1008EC003B6901FA03F31A43FB681A603B685B68C7
:1008FC0003F08053002B00F09680574A564B9B69AF
:10090C0043F001039361544B9B6903F00103BB60FB
:10091C00BB68524A7B6A9B08023352F823307B61D6
:10092C007B6A03F003039B000F2202FA03F3DB4301
:10093C007A6913407B617B68494A934213D07B6888
:10094C00484A93420DD07B68474A934207D07B6854
:10095C00464A934201D1032306E0042304E0022318
:10096C0002E0012300E000237A6A02F00302920005
:10097C0093407A6913437B6138497B6A9B08023345
:10098C007A6941F823203B685B6803F48033002BC1
:10099C0006D03749364B1A68BB6913430B6006E027
:1009AC003349334B1A68BB69DB4313400B603B681C
:1009BC005B6803F40033002B06D02D492C4B5A688E
:1009CC00BB6913434B6006E02949294B5A68BB6944
:1009DC00DB4313404B603B685B6803F48013002BD4
:1009EC0006D02349224B9A68BB6913438B6006E0FF
:1009FC001F491F4B9A68BB69DB4313408B603B68F4
:100A0C005B6803F40013002B06D01949184BDA6805
:100A1C00BB691343CB6006E01549154BDA68BB691B
:100A2C00DB431340CB607B6A01337B627B6A0F2B09
:100A3C007FF6D4AE00BF2C37BD4680BC704700BFDC
:100A4C0000002110000011100000121000003110E5
:100A5C000000321000002210001002400000014083
:100A6C0000080140000C014000100140001401403E
:100A7C000004014080B489B000AF78603960002375
:100A8C00FB610023BB6100237B6100233B619AE087
:100A9C000122FB699A403B681340BB61BB69002B88
:100AAC0000F08E80BB69FF2B01D87B6801E07B686E
:100ABC000433FB60BB69FF2B02D8FB699B0002E08F
:100ACC00FB69083B9B003B61FB681A680F213B6983
:100ADC0001FA03F3DB431A4004213B6901FA03F3E7
:100AEC001A43FB681A607B68DA68BB69DB431A40FF
:100AFC007B68DA603A4AFB699B08023352F8233070
:100B0C007B61FB6903F003039B000F2202FA03F3E2
:100B1C007A6913407B617B68324A934213D07B68BD
:100B2C00314A93420DD07B68304A934207D07B68A0
:100B3C002F4A934201D1032306E0042304E002234D
:100B4C0002E0012300E00023FA6902F003029200A4
:100B5C0003FA02F27B699A4232D1FB6903F0030378
:100B6C009B000F2202FA03F37B611D48FB699B0873
:100B7C001B49FA699208023251F822107A69D24361
:100B8C000A40023340F823201A491A4B1A68BB69F1
:100B9C00DB4313400B601749164B5A68BB69DB43A8
:100BAC0013404B601349134B9A68BB69DB431340EA
:100BBC008B6010490F4BDA68BB69DB431340CB6089
:100BCC00FB690133FB613A68FB6922FA03F3002BE2
:100BDC007FF45EAF00BF2437BD4680BC704700BFBA
:100BEC000000014000080140000C014000100140D1
:100BFC00001401400004014080B485B000AF78605F
:100C0C000B467B807B689A687B881340002B02D054
:100C1C000123FB7301E00023FB73FB7B18461437A5
:100C2C00BD4680BC704700BF80B483B000AF786015
:100C3C000B467B8013467B707B78002B03D07A8825
:100C4C007B681A6103E07B881A047B681A6100BF19
:100C5C000C37BD4680BC704780B483B000AF786061
:100C6C000B467B807B68DA687B885A407B68DA604D
:100C7C0000BF0C37BD4680BC704700BF80B485B048
:100C8C0000AF78600B467B804FF48033FB607A8832
:100C9C00FB681343FB60FA687B689A617A887B680F
:100CAC009A61FA687B689A617B689B69FB607B68D8
:100CBC009B6903F48033002B01D0002300E0012357
:100CCC0018461437BD4680BC704700BF80B582B053
:100CDC0000AF0346FB80084B5A69FB881340002B7E
:100CEC0006D0054AFB885361FB88184600F006F8CD
:100CFC0000BF0837BD4680BD0004014080B483B0FE
:100D0C0000AF0346FB8000BF0C37BD4680BC70476C
:100D1C0080B500AF084A084B1B6843F01003136002
:100D2C000320FFF771FC002000F02CF800F0AAF96A
:100D3C000023184680BD00BF0020024080B500AFE4
:100D4C00094B4FF0FF32DA60074B00221A61064B59
:100D5C004FF0FF32DA60044B0022DA6000F00CF83E
:100D6C000023184680BD00BF0010024080B400AFC5
:100D7C0000BFBD4680BC704780B400AF00BFBD460D
:100D8C0080BC704780B582B000AF786001F0C6FBC4
:100D9C000246094BA3FB02239B091846FFF77EFC76
:100DAC00002279684FF0FF30FFF73AFC0023184619
:100DBC000837BD4680BD00BFD34D621080B400AF74
:100DCC00044B1B680133034A136000BFBD4680BC53
:100DDC00704700BF4C04002080B400AF024B1B686E
:100DEC001846BD4680BC70474C04002080B584B0CA
:100DFC0000AF78600023FB60FFF7EEFFF86000BFE8
:100E0C00FFF7EAFF0246FB68D21A7B689A42F7D3D7
:100E1C0000BF1037BD4680BD80B400AF044A044B00
:100E2C001B6823F00203136000BFBD4680BC7047F3
:100E3C0010E000E080B400AF044A044B1B6843F0A0
:100E4C000203136000BFBD4680BC704710E000E099
:100E5C0080B400AF024B1846BD4680BC704700BF43
:100E6C000004000180B483B000AF094B1A68094B31
:100E7C007B607B6893FAA3F33B603B68B3FA83F324
:100E8C0022FA03F318460C37BD4680BC704700BFEE
:100E9C00002004E00000FFFF80B400AF034B1B6890
:100EAC00C3F30B031846BD4680BC7047002004E01A
:100EBC0080B400AF044A044B5B6843F001035360F9
:100ECC0000BFBD4680BC7047002004E080B400AF7A
:100EDC00044A044B5B6823F00103536000BFBD461A
:100EEC0080BC7047002004E080B400AF044A044B7F
:100EFC005B6843F00203536000BFBD4680BC704783
:100F0C00002004E080B400AF044A044B5B6823F07B
:100F1C000203536000BFBD4680BC7047002004E054
:100F2C0080B400AF044A044B5B6843F00403536085
:100F3C0000BFBD4680BC7047002004E080B400AF09
:100F4C00044A044B5B6823F00403536000BFBD46A6
:100F5C0080BC7047002004E080B400AF00BFBD46E9
:100F6C0080BC704780B400AFFEE700BF80B400AF18
:100F7C00FEE700BF80B400AFFEE700BF80B400AF57
:100F8C00FEE700BF80B400AF00BFBD4680BC704719
:100F9C0080B400AF00BFBD4680BC704780B400AFCA
:100FAC0000BFBD4680BC704780B500AFFFF706FFA1
:100FBC00FFF7F6FB00BF80BD80B500AFFFF7A8FEC2
:100FCC0000F004F800F044F8FEE700BF80B590B0E4
:100FDC0000AF0223BB610123BB621023FB62002321
:100FEC007B6307F11803184600F0D6F80346002B74
:100FFC0001D000F043F80F237B600023BB6000237B
:10100C00FB6000233B6100237B613B1D00211846E4
:10101C0000F0E2FF0346002B01D000F02FF801F0A6
:10102C007DFA0246094BA3FB02239B091846FFF7E6
:10103C0035FB0420FFF798FB002200214FF0FF3016
:10104C00FFF7EEFA00BF4037BD4680BDD34D6210AE
:10105C0080B483B000AF084A074B9B6943F004038C
:10106C009361054B9B6903F004037B607B6800BFB5
:10107C000C37BD4680BC70470010024080B400AFF6
:10108C00FEE700BF80B582B000AF224A214B9B69BE
:10109C0043F0010393611F4B9B6903F001037B60D9
:1010AC007B680320FFF7B0FA002200216FF00B00E1
:1010BC00FFF7B6FA002200216FF00A00FFF7B0FA32
:1010CC00002200216FF00900FFF7AAFA002200218C
:1010DC006FF00400FFF7A4FA002200216FF0030068
:1010EC00FFF79EFA002200216FF00100FFF798FA3B
:1010FC00002200214FF0FF30FFF792FA064A064B10
:10110C005B6823F0E06343F00073536000BF083763
:10111C00BD4680BD001002400000014080B483B089
:10112C0000AF1A4A194B5B6823F003035360174A4C
:10113C00164B1B6823F0847323F480331360134A1B
:10114C00124B1B6823F480231360104B00225A604F
:10115C000E490E4B1B6823F0F802F8237B607B686A
:10116C0093FAA3F33B603B68B3FA83F3102000FAC5
:10117C0003F313430B60054B00229A60044B054AA2
:10118C001A6000BF0C37BD4680BC7047001002408F
:10119C000000002000127A0090B5E5B000AF3B1DB6
:1011AC0018600023C7F88C313B1D1B681B6803F0CB
:1011BC000103002B00F07581B84B5B6803F00C0346
:1011CC00042B0BD0B54B5B6803F00C03082B5FD1E1
:1011DC00B24B5B6803F48033002B59D04FF40033CF
:1011EC00C7F8CC30D7F8CC3093FAA3F3C7F8C83093
:1011FC00D7F8C830B3FA83F35BB243F020035BB289
:10120C00DBB25B09DBB2012B02D1A44B1B681BE0E8
:10121C004FF40033C7F87031D7F8703193FAA3F359
:10122C00C7F8C430D7F8C430B3FA83F35BB243F0D9
:10123C0020035BB2DBB25B09DBB2022B02D1974B12
:10124C001B6A01E0954B5B6A4FF40032C7F86C21C6
:10125C00D7F86C2192FAA2F2C7F8C020D7F8C020B8
:10126C00B2FA82F252B242F0200252B2D2B202F080
:10127C001F02D34003F00103002B00F011813B1D32
:10128C001B685B68002B40F00B81012300F09DBEB6
:10129C003B1D1B685B68B3F5803F06D17F4A7F4BD3
:1012AC001B6843F48033136030E03B1D1B685B68A4
:1012BC00002B0CD1794A794B1B6823F480331360D3
:1012CC00764A764B1B6823F4802313601EE03B1D8B
:1012DC001B685B68B3F5A02F0CD1704A6F4B1B6871
:1012EC0043F4802313606D4A6C4B1B6843F48033CA
:1012FC0013600BE0694A694B1B6823F4803313605D
:10130C00664A664B1B6823F4802313603B1D1B68E5
:10131C005B68002B60D0FFF75FFDC7F88C010AE01B
:10132C00FFF75AFD0246D7F88C31D31A642B02D939
:10133C00032300F04ABE4FF40033C7F86831D7F8E6
:10134C00683193FAA3F3C7F8BC30D7F8BC30B3FAC2
:10135C0083F35BB243F020035BB2DBB25B09DBB21D
:10136C00012B02D14D4B1B681BE04FF40033C7F827
:10137C008831D7F8883193FAA3F3C7F8B830D7F887
:10138C00B830B3FA83F35BB243F020035BB2DBB249
:10139C005B09DBB2022B02D1404B1B6A01E03F4BD5
:1013AC005B6A4FF40032C7F88421D7F8842192FA93
:1013BC00A2F2C7F8B420D7F8B420B2FA82F252B233
:1013CC0042F0200252B2D2B202F01F02D34003F01C
:1013DC000103002BA4D064E0FFF7FEFCC7F88C01DE
:1013EC000AE0FFF7F9FC0246D7F88C31D31A642BCC
:1013FC0002D9032300F0E9BD4FF40033C7F8803164
:10140C00D7F8803193FAA3F3C7F8B030D7F8B030DF
:10141C00B3FA83F35BB243F020035BB2DBB25B093C
:10142C00DBB2012B02D11D4B1B681BE04FF40033C8
:10143C00C7F87C31D7F87C3193FAA3F3C7F8AC30FA
:10144C00D7F8AC30B3FA83F35BB243F020035BB252
:10145C00DBB25B09DBB2022B02D1104B1B6A01E041
:10146C000E4B5B6A4FF40032C7F87821D7F878211D
:10147C0092FAA2F2C7F8A820D7F8A820B2FA82F202
:10148C0052B242F0200252B2D2B202F01F02D3404A
:10149C0003F00103002BA4D103E000BF00100240B5
:1014AC0000BF3B1D1B681B6803F00203002B00F000
:1014BC009881BC4B5B6803F00C03002B0BD0B94B31
:1014CC005B6803F00C03082B74D1B64B5B6803F418
:1014DC008033002B6ED10223C7F87431D7F87431E6
:1014EC0093FAA3F3C7F8A430D7F8A430B3FA83F374
:1014FC005BB243F020035BB2DBB25B09DBB2012BC6
:10150C0002D1A84B1B681AE00223C7F84031D7F868
:10151C00403193FAA3F3C7F8A030D7F8A030B3FA50
:10152C0083F35BB243F020035BB2DBB25B09DBB24B
:10153C00022B02D19B4B1B6A01E09A4B5B6A022285
:10154C00C7F83C21D7F83C2192FAA2F2C7F89C20AC
:10155C00D7F89C20B2FA82F252B242F0200252B278
:10156C00D2B202F01F02D34003F00103002B07D0CC
:10157C003B1D1B681B69012B02D0012300F025BD0C
:10158C008848884B1B6823F0F8023B1D1B6859697F
:10159C00F823C7F83831D7F8383193FAA3F3C7F8E2
:1015AC009830D7F89830B3FA83F301FA03F3134366
:1015BC00036016E13B1D1B681B69002B00F0948037
:1015CC000123C7F83431D7F8343193FAA3F3C7F8B1
:1015DC009430D7F89430B3FA83F39B0003F184432F
:1015EC0003F584031A4601231360FFF7F5FBC7F8D4
:1015FC008C010AE0FFF7F0FB0246D7F88C31D31AC6
:10160C00022B02D9032300F0E0BC0223C7F864319B
:10161C00D7F8643193FAA3F207F190031A6007F13B
:10162C0090031B68B3FA83F35BB243F020035BB205
:10163C00DBB25B09DBB2012B02D15A4B1B681CE0FD
:10164C000223C7F86031D7F8603193FAA3F207F19F
:10165C008C031A6007F18C031B68B3FA83F35BB23B
:10166C0043F020035BB2DBB25B09DBB2022B02D18D
:10167C004C4B1B6A01E04B4B5B6A0222C7F85C21A6
:10168C00D7F85C2192FAA2F107F18802116007F1F8
:10169C0088021268B2FA82F252B242F0200252B2BE
:1016AC00D2B202F01F02D34003F00103002BA1D0F1
:1016BC003C4C3C4B1B6823F0F8023B1D1B685969E2
:1016CC00F823C7F85831D7F8583193FAA3F007F13B
:1016DC008403186007F184031B68B3FA83F301FADF
:1016EC0003F3134323607CE00123C7F85431D7F88C
:1016FC00543193FAA3F207F180031A6007F18003C7
:10170C001B68B3FA83F39B0003F1844303F5840352
:10171C001A4600231360FFF75FFBC7F88C010AE041
:10172C00FFF75AFB0246D7F88C31D31A022B02D999
:10173C00032300F04ABC0223C7F85031D7F85031CC
:10174C0093FAA3F207F17C031A6007F17C031B6880
:10175C00B3FA83F35BB243F020035BB2DBB25B09F9
:10176C00DBB2012B02D10F4B1B681FE00223C7F821
:10177C004C31D7F84C3193FAA3F207F178031A6085
:10178C0007F178031B68B3FA83F35BB243F02003D1
:10179C005BB2DBB25B09DBB2022B05D1014B1B6ADE
:1017AC0004E000BF00100240B74B5B6A0222C7F88E
:1017BC004821D7F8482192FAA2F107F1740211607E
:1017CC0007F174021268B2FA82F252B242F02002AD
:1017DC0052B2D2B202F01F02D34003F00103002B2D
:1017EC009ED13B1D1B681B6803F00803002B00F007
:1017FC00F9803B1D1B689B69002B7BD00123C7F82C
:10180C004431D7F8443193FAA3F207F170031A600C
:10181C0007F170031B68B3FA83F39B001A469B4BCA
:10182C0013441A4601231360FFF7D6FAC7F88C014C
:10183C0009E0FFF7D1FA0246D7F88C31D31A022B04
:10184C0001D90323C1E30223C7F83031D7F8303173
:10185C0093FAA3F207F16C031A6007F16C031B688F
:10186C00B3FA83F35BB243F060035BB2DBB25B09A8
:10187C00DBB2012B02D1844B1B681CE00223C7F89E
:10188C002C31D7F82C3193FAA3F207F168031A60C4
:10189C0007F168031B68B3FA83F35BB243F0600390
:1018AC005BB2DBB25B09DBB2022B02D1764B1B6A5B
:1018BC0001E0754B5B6A0222C7F82821D7F8282172
:1018CC0092FAA2F107F16402116007F16402126846
:1018DC00B2FA82F252B242F0600252B2D2B202F0CA
:1018EC001F02D34003F00103002BA2D00120FFF70D
:1018FC007DFA77E00123C7F82431D7F8243193FA25
:10190C00A3F207F160031A6007F160031B68B3FAD6
:10191C0083F39B001A465D4B13441A460023136055
:10192C00FFF75AFAC7F88C0109E0FFF755FA02469F
:10193C00D7F88C31D31A022B01D9032345E30223A8
:10194C00C7F82031D7F8203193FAA3F207F15C03E2
:10195C001A6007F15C031B68B3FA83F35BB243F0C4
:10196C0060035BB2DBB25B09DBB2012B02D1464BED
:10197C001B681CE00223C7F81C31D7F81C3193FA02
:10198C00A3F207F158031A6007F158031B68B3FA66
:10199C0083F35BB243F060035BB2DBB25B09DBB297
:1019AC00022B02D1384B1B6A01E0374B5B6A0222D7
:1019BC00C7F81821D7F8182192FAA2F107F15402AE
:1019CC00116007F154021268B2FA82F252B242F07C
:1019DC00600252B2D2B202F01F02D34003F00103F4
:1019EC00002BA2D13B1D1B681B6803F00403002BCA
:1019FC0000F03C81244A244BDB6943F08053D361D3
:101A0C00214BDB6903F0805207F108031A6007F1E0
:101A1C0008031B681E4A1E4B1B6843F4807313603B
:101A2C00FFF7DAF9C7F88C0109E0FFF7D5F90246A0
:101A3C00D7F88C31D31A642B01D90323C5E2144B8C
:101A4C001B6803F48073002BEFD03B1D1B68DB6815
:101A5C00012B06D10C4A0C4B1B6A43F00103136299
:101A6C0036E03B1D1B68DB68002B13D1064A064B86
:101A7C001B6A23F001031362034A034B1B6A23F016
:101A8C000403136224E000BF0010024080044242B1
:101A9C00007000403B1D1B68DB68052B0CD1AC4A69
:101AAC00AB4B1B6A43F004031362A94AA84B1B6A95
:101ABC0043F0010313620BE0A54AA54B1B6A23F00C
:101ACC0001031362A24AA24B1B6A23F004031362A4
:101ADC003B1D1B68DB68002B64D0FFF77DF9C7F852
:101AEC008C010BE0FFF778F90246D7F88C31D31A4A
:101AFC0041F28832934201D9032366E20223C7F8EC
:101B0C001431D7F8143193FAA3F207F150031A6089
:101B1C0007F150031B68B3FA83F35BB243F0400345
:101B2C005BB2DBB25B09DBB2012B02D1884B1B68C9
:101B3C001CE00223C7F81031D7F8103193FAA3F246
:101B4C0007F14C031A6007F14C031B68B3FA83F3DB
:101B5C005BB243F040035BB2DBB25B09DBB2022B3E
:101B6C0002D17B4B1B6A01E0794B5B6A0222C7F8FE
:101B7C000C21D7F80C2192FAA2F107F1480211605E
:101B8C0007F148021268B2FA82F252B242F04002F5
:101B9C0052B2D2B202F01F02D34003F00103002B69
:101BAC00A0D063E0FFF718F9C7F88C010BE0FFF742
:101BBC0013F90246D7F88C31D31A41F2883293428A
:101BCC0001D9032301E20223C7F80831D7F8083101
:101BDC0093FAA3F207F144031A6007F144031B685C
:101BEC00B3FA83F35BB243F040035BB2DBB25B0945
:101BFC00DBB2012B02D1564B1B681CE00223C7F849
:101C0C000431D7F8043193FAA3F207F140031A60B8
:101C1C0007F140031B68B3FA83F35BB243F0400354
:101C2C005BB2DBB25B09DBB2022B02D1484B1B6A05
:101C3C0001E0474B5B6A0222C7F80021D7F800216C
:101C4C0092FAA2F107F13C02116007F13C02126812
:101C5C00B2FA82F252B242F0400252B2D2B202F066
:101C6C001F02D34003F00103002BA0D13B1D1B68C6
:101C7C00DB69002B00F0A881354B5B6803F00C038B
:101C8C00082B00F09F813B1D1B68DB69022B40F089
:101C9C001B814FF08073C7F8FC30D7F8FC3093FAF7
:101CAC00A3F207F138031A6007F138031B68B3FA83
:101CBC0083F39B0003F1844303F584031A4600234A
:101CCC001360FFF789F8C7F88C0109E0FFF784F877
:101CDC000246D7F88C31D31A022B01D9032374E1B5
:101CEC004FF00073C7F8F830D7F8F83093FAA3F236
:101CFC0007F134031A6007F134031B68B3FA83F35A
:101D0C005BB243F020035BB2DBB25B09DBB2012BAD
:101D1C0002D10F4B1B681FE04FF00073C7F8F43073
:101D2C00D7F8F43093FAA3F207F130031A6007F1F5
:101D3C0030031B68B3FA83F35BB243F020035BB24E
:101D4C00DBB25B09DBB2022B04D1014B1B6A03E053
:101D5C00001002409F4B5B6A4FF00072C7F8F020F6
:101D6C00D7F8F02092FAA2F107F12C02116007F1DA
:101D7C002C021268B2FA82F252B242F0200252B233
:101D8C00D2B202F01F02D34003F00103002B9DD10D
:101D9C003B1D1B681B6AB3F5803F09D18D498D4BE8
:101DAC005B6823F400323B1D1B689B6813434B603C
:101DBC008848884B5B6823F474123B1D1B68196AB6
:101DCC003B1D1B685B6A0B43134343604FF08073EE
:101DDC00C7F8EC30D7F8EC3093FAA3F207F12803EC
:101DEC001A6007F128031B68B3FA83F39B0003F115
:101DFC00844303F584031A4601231360FEF7ECFFBA
:101E0C00C7F88C0109E0FEF7E7FF0246D7F88C31E2
:101E1C00D31A022B01D90323D7E04FF00073C7F874
:101E2C00E830D7F8E83093FAA3F207F124031A60EC
:101E3C0007F124031B68B3FA83F35BB243F020036E
:101E4C005BB2DBB25B09DBB2012B02D1614B1B68CD
:101E5C001DE04FF00073C7F8E430D7F8E43093FA84
:101E6C00A3F207F120031A6007F120031B68B3FAF1
:101E7C0083F35BB243F020035BB2DBB25B09DBB2F2
:101E8C00022B02D1534B1B6A01E0524B5B6A4FF0A1
:101E9C000072C7F8E020D7F8E02092FAA2F107F11F
:101EAC001C02116007F11C021268B2FA82F252B2E3
:101EBC0042F0200252B2D2B202F01F02D34003F021
:101ECC000103002B9FD07FE04FF08073C7F8DC300C
:101EDC00D7F8DC3093FAA3F207F118031A6007F174
:101EEC0018031B68B3FA83F39B0003F1844303F5D7
:101EFC0084031A4600231360FEF76EFFC7F88C01AB
:101F0C0009E0FEF769FF0246D7F88C31D31A022B91
:101F1C0001D9032359E04FF00073C7F8D830D7F834
:101F2C00D83093FAA3F207F114031A6007F11403E3
:101F3C001B68B3FA83F35BB243F020035BB2DBB2F2
:101F4C005B09DBB2012B02D1224B1B681DE04FF069
:101F5C000073C7F8D430D7F8D43093FAA3F207F152
:101F6C0010031A6007F110031B68B3FA83F35BB21A
:101F7C0043F020035BB2DBB25B09DBB2022B02D174
:101F8C00144B1B6A01E0134B5B6A4FF00072C7F8ED
:101F9C00D020D7F8D02092FAA2F107F10C021160F0
:101FAC0007F10C021268B2FA82F252B242F020022D
:101FBC0052B2D2B202F01F02D34003F00103002B45
:101FCC009FD101E0012300E00023184607F5CA77F2
:101FDC00BD4690BD0010024080B598B000AF78604F
:101FEC0039600023FB65A54B1B6803F007023B68B7
:101FFC009A4210D2A149A14B1B6823F007023B68FF
:10200C0013430B609D4B1B6803F007023B689A421D
:10201C0001D001238FE17B681B6803F00203002BC6
:10202C0008D09749964B5B6823F0F0027B689B685D
:10203C0013434B607B681B6803F00103002B00F01B
:10204C0027817B685B68012B46D14FF400337B639F
:10205C007B6B93FAA3F33B633B6BB3FA83F35BB2F7
:10206C0043F020035BB2DBB25B09DBB2012B02D184
:10207C00834B1B6817E04FF40033BB65BB6D93FAC1
:10208C00A3F3FB62FB6AB3FA83F35BB243F0200366
:10209C005BB2DBB25B09DBB2022B02D1784B1B6A61
:1020AC0001E0774B5B6A4FF400327A657A6D92FAF5
:1020BC00A2F2BA62BA6AB2FA82F252B242F02002C8
:1020CC0052B2D2B202F01F02D34003F00103002B34
:1020DC0040F08F8001232EE17B685B68022B45D199
:1020EC004FF000733B653B6D93FAA3F37B627B6A05
:1020FC00B3FA83F35BB243F020035BB2DBB25B0950
:10210C00DBB2012B02D15E4B1B6817E04FF0007362
:10211C00FB64FB6C93FAA3F33B623B6AB3FA83F365
:10212C005BB243F020035BB2DBB25B09DBB2022B88
:10213C0002D1534B1B6A01E0514B5B6A4FF00072AA
:10214C00BA64BA6C92FAA2F2FA61FA69B2FA82F241
:10215C0052B242F0200252B2D2B202F01F02D3406D
:10216C0003F00103002B44D10123E4E002237B6440
:10217C007B6C93FAA3F3BB61BB69B3FA83F35BB2D9
:10218C0043F020035BB2DBB25B09DBB2012B02D163
:10219C003B4B1B6816E002233B643B6C93FAA3F3A6
:1021AC007B617B69B3FA83F35BB243F020035BB2D0
:1021BC00DBB25B09DBB2022B02D1314B1B6A01E0B3
:1021CC002F4B5B6A0222FA63FA6B92FAA2F23A6123
:1021DC003A69B2FA82F252B242F0200252B2D2B250
:1021EC0002F01F02D34003F00103002B01D10123A5
:1021FC00A1E02349224B5B6823F003027B685B68F8
:10220C0013434B60FEF7E8FDF8657B685B68012BB8
:10221C0012D10AE0FEF7E0FD0246FB6DD31A41F243
:10222C008832934201D9032385E0154B5B6803F098
:10223C000C03042BEED12BE07B685B68022B21D1C5
:10224C000AE0FEF7C9FD0246FB6DD31A41F2883253
:10225C00934201D903236EE0094B5B6803F00C0336
:10226C00082BEED114E0FEF7B7FD0246FB6DD31A36
:10227C0041F28832934205D903235CE000200240EE
:10228C00001002402E4B5B6803F00C03002BEAD1CC
:10229C002C4B1B6803F007023B689A4210D9294962
:1022AC00284B1B6823F007023B6813430B60254B3C
:1022BC001B6803F007023B689A4201D001233AE005
:1022CC007B681B6803F00403002B08D01C491C4BD3
:1022DC005B6823F4E0627B68DB6813434B607B68CC
:1022EC001B6803F00803002B09D01549144B5B68DD
:1022FC0023F460527B681B69DB0013434B6000F0D6
:10230C0093F801460E4B5B6803F0F002F023BB63BD
:10231C00BB6B93FAA3F3FB60FB68B3FA83F322FA6B
:10232C0003F3094AD35C21FA03F3084A1360002033
:10233C00FEF728FD002318466037BD4680BD00BF60
:10234C000010024000200240082900080000002074
:10235C0080B58AB000AFF860B9607A6007F11803F5
:10236C0000221A605A609A60DA600223FB61032330
:10237C007B6200233B624FF48073BB610E4A0E4BB1
:10238C009B6943F0040393610B4B9B6903F00403BB
:10239C007B617B6907F1180319460848FEF70CFAB4
:1023AC000549054B5B6823F0E062BB6813434B6047
:1023BC0000BF2837BD4680BD001002400008014018
:1023CC0080B483B000AF4FF400237B607B6893FA3A
:1023DC00A3F33B603B68B3FA83F39B0003F18443A4
:1023EC0003F584031A460123136000BF0C37BD4666
:1023FC0080BC704780B483B000AF4FF400237B6087
:10240C007B6893FAA3F33B603B68B3FA83F39B00BE
:10241C0003F1844303F584031A460023136000BFC1
:10242C000C37BD4680BC704790B48EB000AF364BB5
:10243C003C1D186859689A68DB680FC4334A3B46E0
:10244C0012881A800023FB620023BB6200237B638B
:10245C0000237B6200233B632D4B5B68FB62FB6AB2
:10246C0003F00C03042B02D0082B03D043E0294BC0
:10247C003B6343E0FB6A03F470124FF47013FB618F
:10248C00FB6993FAA3F3BB61BB69B3FA83F322FA3A
:10249C0003F307F13802134413F8343C7B62FB6AF4
:1024AC0003F48033002B1ED0194B5B6803F400320D
:1024BC004FF400333B623B6A93FAA3F37B617B6975
:1024CC00B3FA83F322FA03F307F13802134413F837
:1024DC00383CBB620F4ABB6AB2FBF3F37A6A02FB6D
:1024EC0003F37B6304E07B6A0B4A02FB03F37B631D
:1024FC007B6B3B6302E0074B3B6300BF3B6B1846B7
:10250C003837BD4690BC7047202900083029000898
:10251C000010024000127A0000093D0080B400AFA8
:10252C00024B1B681846BD4680BC7047000000205B
:10253C0080B582B000AFFFF7F1FF01460B4B5B6833
:10254C0003F4E0624FF4E0637B607B6893FAA3F3DF
:10255C003B603B68B3FA83F322FA03F3044AD35C7F
:10256C0021FA03F318460837BD4680BD001002401F
:10257C001829000880B582B000AFFFF7CFFF0146E5
:10258C000B4B5B6803F460524FF460537B607B68C9
:10259C0093FAA3F33B603B68B3FA83F322FA03F399
:1025AC00044AD35C21FA03F318460837BD4680BDB4
:1025BC00001002401829000880B485B000AF786084
:1025CC007B680F221A603F4B1B6803F48023002B9F
:1025DC0004D07B684FF4A0225A600DE0394B1B6885
:1025EC0003F48033002B04D07B684FF480325A60A4
:1025FC0002E07B6800225A60324B5B6803F40032C5
:10260C007B689A602F4B1B6803F00103002B03D0EF
:10261C007B6801221A6102E07B6800221A61294B57
:10262C001B6803F0F802F823FB60FB6893FAA3F332
:10263C00BB60BB68B3FA83F3DA407B685A61214B09
:10264C001B6A03F00403002B03D07B680522DA60BD
:10265C000CE01C4B1B6A03F00103002B03D07B68BE
:10266C000122DA6002E07B680022DA60154B5B6ABB
:10267C0003F00103002B03D07B6801229A6102E076
:10268C007B6800229A610F4B1B6803F08073002B50
:10269C0003D07B680222DA6102E07B680122DA61F6
:1026AC00084B5B6803F480327B681A62054B5B68ED
:1026BC0003F470127B685A6200BF1437BD4680BCAD
:1026CC00704700BF0010024080B483B000AF786048
:1026DC0039607B680F221A60114B5B6803F00302B0
:1026EC007B685A600E4B5B6803F0F0027B689A6063
:1026FC000B4B5B6803F4E0627B68DA60084B5B6849
:10270C0003F46053DA087B681A61064B1B6803F00C
:10271C0007023B681A6000BF0C37BD4680BC70478F
:10272C00001002400020024080B500AF064B9B68B1
:10273C0003F08003002B04D000F00AF8034B802236
:10274C001A7000BF80BD00BF001002400A1002408A
:10275C0080B400AF00BFBD4680BC704770B50F4E53
:10276C000F4D761BB61018BF002405D0013455F858
:10277C00043B9847A642F9D10A4E0B4D00F0B2F833
:10278C00761BB61018BF002406D0013455F8043B54
:10279C009847A642F9D170BD70BD00BF3C29000816
:1027AC003C290008442900083C290008024B13B1BD
:1027BC00024800F005B8704700000000D927000857
:1027CC00002301461A46184600F014B838B5074DD8
:1027DC00074C2C1BA41005D0013C55F8043D984720
:1027EC00002CF9D1BDE8384000F082B84829000827
:1027FC00442900082DE9F047254C064625688846F3
:10280C00D5F8484192469946C4B360681F2817DC36
:10281C00411C76B104EB8003C3F888A0D4F888512E
:10282C00012282401543022EC4F88851C3F8089146
:10283C001ED0831C6160002044F82380BDE8F08723
:10284C00144B03B34FF4C870AFF300800446D0B1FF
:10285C00D5F84831002784E888003846C5F8484147
:10286C000121C4F88871C4F88C71002EE1D0D1E735
:10287C00D4F88C311A43C4F88C21DAE705F5A67428
:10288C00C5F84841C1E74FF0FF30BDE8F08700BF05
:10289C003829000800000000002103E00B4B5B58B6
:1028AC00435004310A480B4B42189A42F6D30A4A59
:1028BC0002E0002342F8043B084B9A42F9D3FDF79F
:1028CC004DFCFFF74BFFFEF777FB704748290008DC
:1028DC0000000020300400203004002050040020B0
:1028EC00FEE70000F8B500BFF8BC08BC9E46704778
:0C28FC00F8B500BFF8BC08BC9E46704751
:102908000000000000000000010203040607080997
:102918000000000001020304020304050607080979
:102928000A0B0C0D0E0F10100102000043000000EE
:042938000800002073
:08293C00B92700083101000871
:042944000D01000879
:1029480000A24A040000000000000000F402002079
:102958005C030020C4030020000000000000000009
:10296800000000000000000000000000000000005F
:1029780000000000000000000000000034290008EA
:10298800000000000000000000000000000000003F
:10299800000000000000000000000000000000002F
:1029A800000000000000000000000000000000001F
:1029B800000000000000000000000000000000000F
:1029C80000000000000000000000000000000000FF
:1029D80000000000000000000000000000000000EF
:1029E80000000000000000000000000000000000DF
:1029F80001000000000000000E33CDAB34126DE67C
:102A0800ECDE05000B0000000000000000000000E4
:102A180000000000000000000000000000000000AE
:102A2800000000000000000000000000000000009E
:102A3800000000000000000000000000000000008E
:102A4800000000000000000000000000000000007E
:04000005080028A522
:00000001FF
